:020000040800F2
:10000000500B002001010008090100080B01000845
:100010000D0100080F010008110100080000000098
:100020000000000000000000000000006D27000834
:100030001501000800000000992400086F2700083F
:100040001B0100081B0100081B0100081B01000820
:100050001B0100081B0100081B0100081B01000810
:100060001B0100081B0100081B010008D502000845
:100070001B0100081B0100081B0100081B010008F0
:100080001B0100081B010008990100081B01000862
:100090001B0100081B0100081B0100081B010008D0
:1000A0001B0100081B0100081B0100081B010008C0
:1000B0001B0100081B0100081B0100081B010008B0
:1000C0001B0100081B0100081B0100081B010008A0
:1000D0001B0100081B0100081B0100081B01000890
:1000E0001B0100081B0100081B010008DFF80CD0F1
:1000F00000F040F8004800477D2D0008500B00201C
:100100000648804706480047FEE7FEE7FEE7FEE7B1
:10011000FEE7FEE7FEE7FEE7FEE7FEE7F52700085D
:10012000ED000008D2B201E000F8012B491EFBD21D
:1001300070470022F6E710B513460A4604461946F2
:10014000FFF7F0FF204610BD30B50B4601460020FA
:100150002022012409E021FA02F59D4205D303FA89
:1001600002F5491B04FA02F52844151EA2F101020A
:10017000F1DC30BD064C074D06E0E06840F00103BD
:1001800094E8070098471034AC42F6D3FFF7B2FF6B
:10019000104A0008304A0008014800F068B9000021
:1001A000A400002070B5044600688168C943C907EF
:1001B0001CD1816821F00101816000F00FFE05462D
:1001C0000FE000BF00F00AFE401B022809D9A06A18
:1001D00040F01000A062E06A40F00100E0620120FF
:1001E00070BD20688068C043C007EBD0002070BDA0
:1001F00010B50146406A826A12F0500F05D0006ABD
:10020000026BBDE8104008461047816A41F4007156
:10021000816201688968C1F3424107290CD1C16834
:1002200051B9816A21F480718162816AC90403D461
:10023000816A41F00101816200F016F910BD10B52C
:10024000406A816A41F040018162C16A41F0040163
:10025000C16200F00BF910BD10B5406A00F005F95D
:1002600010BD0000F8B500260446009600688168BD
:10027000C943C90728D0816841F001018160134852
:1002800013490068B0FBF1F000E0401E0090002828
:10029000FBD100F0A3FD054611E000BF00F09EFD7C
:1002A000401B02280BD9A06A40F01000A062E06A4F
:1002B00040F00100E06284F824600120F8BD20686D
:1002C0008068C043C007E9D10020F8BD0C000020C1
:1002D00040420F00014800F007BB0000D40000209E
:1002E00010B5046863604368102B036803D09960FD
:1002F0000068C26010BD9A600068C16010BD7047A0
:10030000F8B50025009590F82420AE46012A1ED0AD
:10031000012280F824204A681F244FF47873072AAA
:1003200017D20668776B93FAA3FCBCFA8CFC521EBA
:1003300002FB0CFC04FA0CF4A74393FAA3F3B3FA00
:1003400083F30C685A439440274377632DE00220DF
:10035000F8BD06680D2A14D2376B93FAA3FCBCFAD9
:100360008CFCD21F02FB0CFC04FA0CF4A74393FA9A
:10037000A3F3B3FA83F30C685A43944027433763DB
:1003800013E0F76A93FAA3FCBCFA8CFC0D3A02FB6B
:100390000CFC04FA0CF4A74393FAA3F3B3FA83F327
:1003A0000C685A4394402743F7620A6838230724AD
:1003B00006680A2A14D3F76893FAA3FCBCFA8CFCEB
:1003C0000A3A02FB0CFC04FA0CF4A74393FAA3F3D9
:1003D000B3FA83F38C685A4394402743F76012E0E2
:1003E000376993FAA3FCBCFA8CFC02FB0CFC04FA00
:1003F0000CF4A74393FAA3F3B3FA83F38C685A433C
:100400009440274337610A68102A01D0112A20D16D
:10041000124B02689A4217D193681B0219D4936851
:1004200043F4000393600968102912D10C490D4A66
:100430000968B1FBF2F101EB8101490000E0491EBE
:1004400000910029FBD104E0816A41F02001816222
:10045000012580F824E02846F8BD00000024014072
:100460000C00002040420F0070477047704710B5E5
:10047000044600684168890626D50168890723D5A6
:10048000A16AC90603D4A16A41F40071A16281681E
:10049000C1F34241072910D1E16871B9416821F0E7
:1004A00020014160A06A20F48070A062A06AC004AC
:1004B00003D4A06A40F00100A0622046FFF7D4FFF9
:1004C00021686FF0120008602068416809062ED587
:1004D000016849072BD5A16AC90603D4A16A41F472
:1004E0000051A1628168C1F30231072909D0416836
:1004F000490515D48168C1F34241072910D1E1684B
:1005000071B9416821F080014160A06A20F48050F7
:10051000A062A06AC00503D4A06A40F00100A062F6
:100520002046FFF7ECFE21686FF00C0008602068A1
:10053000416849060DD50068C0070AD0A06A40F49A
:100540008030A062204600F09FF821686FF0010023
:10055000086010BD2DE9F04104004FF0000513D0F4
:10056000A06A002628B9E66284F82460204600F0DC
:100570008DF82046FFF716FEA16AC90600D420B107
:10058000A06A40F01000A06278E0A16A21F48851CE
:1005900041F00201A1626268E16902270A43E16851
:1005A00097FAA7F70B46B7FA87F7B9400A43A1684D
:1005B0004FF48077B94209D0012907D05FF00001DC
:1005C000D4F814C0BCF1010F02D00AE03946F7E7B5
:1005D000F3B1A36A43F02003A362E36A43F001038B
:1005E000E3622368D3F804C02CF4694C4CEA010C94
:1005F000C3F804C021688B68DFF884C003EA0C03E9
:1006000013438B60A168B94210D001290ED016E0C7
:100610004FF4604CA3699CFAACFCBCFA8CFC5B1EEA
:1006200003FA0CF30B4343F40061DAE74FF4700173
:10063000256991FAA1F1B1FA81F16D1E8D40216811
:10064000CB6A23F470032B43CB62216889680D4B7E
:100650001940914208D1E662A16A21F0020141F0FD
:100660000101A162BDE8F081A06A20F0020040F023
:100670001000A062E06A40F00100E0620120F1E7B2
:10068000FDF7E1FFFE0E1FFF7047000030B5054685
:1006900000681F4985B0884238D11E48816941F4FD
:1006A000007181618069032400F400700490FF20D0
:1006B000CDE900046946184800F0ACFA0094694698
:1006C0001648019400F0A6FA164C15482060002048
:1006D0006060A0608020E060400020618000606178
:1006E0002020A061C001E061204600F033FA18B17B
:1006F000E4210DA002F05BF92C62002211461220C9
:10070000656200F0B3FD122000F0A4FD05B030BD1D
:10071000002401400010024000080140000C01408C
:1007200008000240D40000202E2E2F5372632F6148
:1007300064632E63000000002DE9F04789460446FB
:100740003B4900683B4F0E1D9046884201D0B8429D
:1007500007D1306810F4702F03D001252846BDE87A
:10076000F08794F8240001280CD0012084F824009C
:100770002046FFF777FD05004FF0000004D084F815
:100780002400EBE70220EAE7A16A40F60162914308
:1007900041F48071A1622168B94218D1326812F423
:1007A000702F14D0A16A41F48011A162316849050B
:1007B00005D5A16A21F4005141F48051A162A16ADA
:1007C000C9040AD5E16A21F00601E16206E0A26AE5
:1007D00022F48012A2624968E9E7E06284F824000A
:1007E000216A15488862216A1448C862216A14483F
:1007F000086321686FF0020008602068816841F496
:1008000080718160216843464A464C31206A00F07D
:10081000C9F920688168C1F342410729816803D082
:1008200041F48011816099E741F4A001FAE70000EA
:100830000024014000280140F1010008590200088D
:100840003F02000810B5044690F82400012807D0A4
:10085000012084F824002046FFF7A4FC10B10EE02C
:10086000022010BD2068816821F480718160206AB7
:1008700000F00EF8A16A30B141F04001A162002100
:1008800084F8241010BD21F4885141F00101F5E7EE
:100890002DE9F04104460068016821F00101016082
:1008A00000F09CFA054600264FF47A7710E000BF6E
:1008B00000F094FA401BB8420AD954F8340F40F0C3
:1008C000200044F81409032060702670BDE8F08110
:1008D00020680068C007EBD1012084F8210084F86B
:1008E00020600020F2E700002DE9F05FDFF8608271
:1008F0000446D8F80020DFF858B2954D944E944F36
:100900000068DFF84C92DFF848A20BF1080B1C35A9
:10091000303644374FF400614FF4004C4FF4002E52
:1009200009F158090AF16C0A584501D1082316E06B
:10093000A84201D1802312E0B04201D10B460EE063
:10094000B84201D163460AE0484501D1734606E04A
:10095000504502D14FF4000301E04FF000631A420A
:1009600031D00268D24312072DD4026822F0080267
:1009700002602068584501D1082114E0A84201D145
:10098000802110E0B0420ED0B84201D161460AE0A9
:10099000484501D1714606E0504502D14FF40001AF
:1009A00001E04FF00061C8F80410606B40F00100F6
:1009B0006063042084F82100002084F82000216B6B
:1009C00009B1204688476248D0F800C04FF48061E2
:1009D00020680A010B044FF4802E584502D14FF0D5
:1009E000040816E0A84202D14FF0400811E0B042DE
:1009F00001D188460DE0B84201D1904609E0484552
:100A000001D1F04605E0504502D14FF4800800E0E6
:100A100098461CEA080F33D0D0F800C06FEA0C0CDF
:100A20005FEA4C7C2CD4D0F800C05FEA8C6C05D413
:100A3000D0F800C02CF0040CC0F800C02068584565
:100A400001D1042113E0A84201D140210FE0B042BE
:100A50000DD0B84201D1114609E0484501D1714697
:100A600005E0504502D14FF4800100E019463848B6
:100A70004160112084F82100E16A09B120468847CD
:100A8000334AD2F800C05B46206851154FF4005B32
:100A90004FF4003E984202D14FF0020817E0A842FE
:100AA00002D14FF0200812E0B04201D188460EE09A
:100AB000B84201D1D8460AE0484501D1F04606E0E7
:100AC000504502D14FF4001801E04FF000781CEAC5
:100AD000080F3BD0D0F800C06FEA0C0C5FEA8C7CAA
:100AE00034D4D0F800C05FEA8C6C05D4D0F800C0D4
:100AF0002CF0020CC0F800C02068984201D10221FD
:100B000014E0A84201D1202110E0B0420ED0B8423A
:100B100001D159460AE0484501D1714606E05045E9
:100B200002D14FF4001101E04FF000715160606B91
:100B30006063012084F82100002084F82000A16A6D
:100B4000002903D02046BDE8F05F0847BDE8F09FCC
:100B50000000024070B520B190F82110002411B1BE
:100B600003E0012070BD80F82040022180F82110B0
:100B700003681A6843F6F0718A43D0E901152943E6
:100B8000D0E90356354329434569294385692943FB
:100B9000C5692943114319604463012180F821107C
:100BA000002070BD70B5044690F82000012823D0C5
:100BB000012084F82000022084F8210020680568C4
:100BC00025F0010505602046FFF78AFB20680168D3
:100BD00041F0020101602068016841F004010160F8
:100BE0002068016841F0080101602068016841F057
:100BF00001010160002070BD022070BD31B500F020
:100C0000EDF8044600F0EAF80099001B8842F9D399
:100C100038BD00002DE9F84FDFF890A100220AF15D
:100C2000040B144601274FF00F090BF1040E00BF0F
:100C30000B6807FA04F52B40AB4274D1DFF870C1A2
:100C40004E68A6EB0C0866452BD00DDC032E34D085
:100C500005DC36B3012E19D0022E2FD11BE0112E48
:100C600016D0122E2AD119E0B8F5881F19D006DC4B
:100C7000B8F5803F15D0B8F5801F1FD111E0B8F549
:100C8000001F0ED0B8F5041F18D10AE0CA6815E09D
:100C9000CA68121D12E0CA6808320FE0CA680C3236
:100CA0000CE08A682AB1012A4FF0080203D045619E
:100CB00004E0042202E0056100E00022FF2B01D8DD
:100CC000064601E000F104064FEA840501D9A5F1CA
:100CD0002005D6F800C009FA05F82CEA080C02FA3B
:100CE00005F54CEA050CC6F800C04D68ED0057D577
:100CF000304DAE6946F00106AE61AD6924F00306E1
:100D000005F0010500952C4D06EB050CDCF80850AC
:100D1000A6074FEA167809FA08F6B543274EB042FF
:100D200002D1002610E03BE0254EB04201D1012661
:100D30000AE0244EB04201D1022605E0224EB04224
:100D400001D1032600E0042606FA08F62E43CCF86B
:100D500008604D68DAF80060ED03554601D51E4382
:100D600000E09E432E604D68DBF80060AD035D46F9
:100D700001D51E4300E09E432E604D68DEF8006002
:100D8000ED02754601D51E4300E09E432E604D687E
:100D9000AD020E4D2E6801D51E4300E09E432E602D
:100DA000641C102CFFF444AFBDE8F88F0004014030
:100DB0000000111000100240000001400008014036
:100DC000000C014000100140001401400C040140DF
:100DD0000AB1016170470904FBE70000014800689F
:100DE000704700000800002070B5040004D094F89B
:100DF0003500002510B106E0012070BD84F83450A4
:100E0000204600F099F9242084F835002068016814
:100E100021F00101016000F04DFC014628482268E4
:100E2000B1FBF0F05060274A6368934206D94FF453
:100E3000967358434FF47A73B0FBF3F02368401C69
:100E400018626068904208D84000B1FBF0F0C0F32F
:100E50000B01042916D2042014E0A26852B100EB61
:100E6000C00202EB0010B1FBF0F040F4404001057D
:100E700007D007E000EB4000B1FBF0F040F4004089
:100E8000F5E701202168C861D4E90701084321681A
:100E90000860D4E90310084321688860D4E905019B
:100EA00008432168C8602068016841F001010160C1
:100EB000A563202084F8350084F83650002070BDEA
:100EC00040420F00A08601002DE9FF4F044690F834
:100ED000350081B099468B460125202873D142F216
:100EE000107301224849204601F0A4F800286AD175
:100EF00094F83400012866D0012084F8340020687A
:100F0000016821F400610160242084F83500002686
:100F1000A66320272068016841F4807101604B4678
:100F200000224FF00111204601F084F800285CD126
:100F300021680BF0FE000861FFF750FF2168804632
:100F400048694969C0F3400094F83520C1F3802115
:100F50004FF0A00A14E000BFB9F1000F05D0FFF771
:100F60003DFFA0EB0801494501D984F835A021686F
:100F700048694969C0F3400094F83520C1F38021E5
:100F8000084301D1A02AE7D184F83570206841696F
:100F9000C943890718D4016841F4007101602068D1
:100FA00041698069009042F210730122164920467F
:100FB00001F040F8C8B984F8357084F83460002036
:100FC00005B0BDE8F08F1DE0016841F400710160DB
:100FD0002068416921F48061416142F2107301226D
:100FE0000949204601F026F808B10320E8E7284621
:100FF00003996D1C88428DD384F8357084F8346071
:101000000120DDE70220DBE7020010002DE9F843B4
:10101000044690F83500DDF820801D4617468946C5
:1010200020287BD1002F7AD0002D7ED042F2107381
:1010300001224049204600F0FDFF002877D194F8B6
:101040003400012873D0012084F83400206801683E
:1010500021F400610160212084F83500102084F81B
:1010600036000026A66342464946204600F0A8FF07
:1010700028B1A06B84F83460042856D00BE02068B7
:101080004169806900904146204601F05CF828B132
:10109000A06B042844D00320BDE8F883216817F82A
:1010A000010B086120686D1EADB24169C943490753
:1010B00005D435B117F8011B01616D1EADB2002DCD
:1010C000E1D14546FFF78AFE8046202716E02046FC
:1010D00000F060FF0028DBD1681C0FD02DB1FFF7B6
:1010E0007DFEA0EB0800A84208D9A06B40F02001CB
:1010F000A16384F8357084F83460C9E720684069DA
:10110000C0434007E3D42068016841F400710160E6
:1011100084F8357084F834600020BDE707E004E00F
:101120002068016841F4007101600120B4E70220E9
:10113000B2E700000200100000B500680C4985B05D
:10114000884212D1C0200090122001900320039009
:1011500069460848FFF75EFD0748C16941F4001180
:10116000C161C06900F40010049005B000BD00002A
:1011700000540040000C0140001002400248016889
:10118000491C01607047000008000020074810B5A6
:10119000016841F010010160032000F087F8002091
:1011A00000F006F800F016F8002010BD0020024004
:1011B00010B5044600F064FA4FF47A71B0FBF1F018
:1011C00000F00EFE00222146501E00F04FF80020D5
:1011D00010BD00001D4808B5816941F00101816121
:1011E000806900F001000090032000F05FF8002209
:1011F00011466FF00B0000F039F8002211466FF035
:101200000A0000F033F8002211466FF0090000F0E8
:101210002DF800221146501F00F028F80022114638
:10122000101F00F023F800221146901E00F01EF857
:1012300000221146501E00F019F80548416821F0BF
:10124000E06141F00071416008BD00000010024003
:101250000000014000F01F02012191404009800080
:1012600000F1E020C0F8001170470000F0B40E4B10
:101270001B680C46C3F30223C3F10705042D00D9F4
:101280000425191D072901D2002300E0DB1E0126D9
:1012900006FA05F1491E214099409E40761E1640EF
:1012A0003143F0BC01F0E8B80CED00E0064900F075
:1012B000070208684FF6FF03184040EA0220034A7D
:1012C00010430860704700000CED00E00000FA05D4
:1012D0002DE9F84305460078444CC00771D0E06919
:1012E00040F08050E061E069414E00F08050009095
:1012F000306840F480703060FFF770FD074604E00E
:10130000FFF76CFDC01B642831D83068C005F7D5E5
:10131000206AA98800F4407001F44071884250D0DE
:10132000206A0126310491FAA1F2B2FA82F2930006
:10133000304A20F440701344C3F8006491FAA1F1DC
:10134000B1FA81F102EB81010023C1F8003420627F
:10135000800730D5FFF742FDB046074641F2883995
:10136000022607E0FFF73AFDC11B494502D90320D9
:10137000BDE8F88396FAA6F0B0FA80F040F040009D
:10138000B8EB501F01D120680BE096FAA6F0B0FA36
:1013900080F040F04000B6EB501F01D1206A00E021
:1013A000606A96FAA6F2B2FA82F202F01F0208FA16
:1013B00002F10842D6D0206A696820F440700843E0
:1013C00020622878800705D56068A96820F440402D
:1013D000084360602878C00605D56068E96820F495
:1013E0008000084360600020C2E700000010024057
:1013F00000700040000042422DE9F047DFF878928B
:1014000005460E46D9F80000022300F00707012028
:1014100041044206994C41F28838B74271D2D9F85A
:1014200000C02CF0070C4CEA060CC9F800C0D9F833
:10143000007007F00707B7426FD12E78B60705D5C1
:101440006668AF6826F0F0063E4366602E78F607C1
:1014500056D06E68012E0BD0022E1ED093FAA3F147
:10146000B1FA81F141F02001490924D0216823E03B
:1014700091FAA1F2B2FA82F242F02002520901D0AE
:10148000226800E0626A91FAA1F1B1FA81F101F0FB
:101490001F018840024240D017E092FAA2F1B1FA4F
:1014A00081F141F02001490901D0216800E0616A21
:1014B00092FAA2F202E0616A93FAA3F2B2FA82F21D
:1014C00002F01F029040014227D0606820F0030024
:1014D00030436060FFF782FC06466868012809D047
:1014E0000228474613D01EE0FFF778FC801BB84265
:1014F00001D992E047466068C0F381000128F3D12A
:10150000A1E015E0FFF76AFC801BB84273D8606861
:10151000C0F381000228F5D195E092E0FFF75EFC70
:10152000801BB84279D8606810F00C0FF6D18AE0C1
:101530002F78BF0707D56768D5F808C027F0F007F0
:1015400047EA0C0767602F78FF076DD06F68012F9F
:101550000BD0022F1ED093FAA3F1B1FA81F141F022
:101560002001490924D0216823E091FAA1F2B2FABE
:1015700082F242F02002520901D0226800E0626A41
:1015800091FAA1F1B1FA81F101F01F018840024204
:1015900057D017E092FAA2F1B1FA81F141F020019F
:1015A000490901D0216800E0616A92FAA2F202E0E2
:1015B000616A93FAA3F2B2FA82F202F01F0290403B
:1015C00001423ED0606820F0030038436060FFF7BE
:1015D00005FC07466868012807D0022811D01FE0E3
:1015E000FFF7FCFBC11B414517D86068C0F38100C1
:1015F0000128F5D118E010E0FFF7F0FBC11B4145D1
:101600000BD86068C0F381000228F5D10CE000BF60
:10161000FFF7E4FBC11B414502D90320BDE8F08779
:10162000606810F00C0FF3D1D9F8001021F0070119
:101630003143C9F80010D9F8000000F00700B042AB
:1016400001D00120EAE72878400705D56068E968FD
:1016500020F4E060084360602878000706D56068E1
:10166000296920F4605040EAC10060600020FFF763
:101670009FFD0020D2E70000002002400010024041
:1016800000B500F043F808494968F02292FAA2F246
:1016900001F0F001B2FA82F2D140044A515CC84034
:1016A0000349086000BD000000100240482F0008F8
:1016B0000C00002000B5FFF7E3FF074949684FF42D
:1016C000E06292FAA2F201F4E061B2FA82F2D14051
:1016D000024A515CC84000BD00100240482F00087B
:1016E00000B5FFF7CDFF074949684FF4605292FA01
:1016F000A2F201F46051B2FA82F2D140024A515C86
:10170000C84000BD00100240482F000810B519A3C2
:1017100085B00FCB8DE80F001AA01B4B006804901A
:101720005A681A4802F00C0104291DD008291BD15F
:101730004FF4701494FAA4F402F47011B4FA84F41F
:10174000E140D2031DF8011010D55A684FF4003360
:1017500093FAA3F302F40032B3FA83F3DA4004AB52
:101760009A5CB0FBF2F0484305B010BD084848430E
:10177000FAE7000002030405060708090A0B0C0D2E
:101780000E0F1010010200000010024000127A003B
:1017900000093D002DE9F84F05460078FA4EC007D4
:1017A0004FF0010425D070686704C0F38100012860
:1017B00007D07068C0F3810002281BD17068C00395
:1017C00018D597FAA7F0B0FA80F040F02000400951
:1017D00001D0306800E0706A97FAA7F1B1FA81F1A0
:1017E00001F01F0104FA01F1084202D068680028E4
:1017F00076D081E0306820F480303060306820F4AA
:1018000080203060FFF7EAFA804605E0FFF7E6FA4D
:10181000A0EB080064287CD897FAA7F0B0FA80F013
:1018200040F02000400901D0306800E0706A97FA6B
:10183000A7F1B1FA81F101F01F0104FA01F10842A8
:10184000E4D16868B0F5803F0BD010B1B0F5A02F9F
:1018500011D0306820F480303060306820F480206F
:1018600002E0306840F480303060686820B3FFF7F1
:10187000B5FA80460AE0306840F480203060F0E736
:10188000FFF7ACFAA0EB08006428C4D897FAA7F0D9
:10189000B0FA80F040F02000400901D0306800E04C
:1018A000706A97FAA7F1B1FA81F101F01F0104FA09
:1018B00001F10842E4D01FE0FFF790FA804605E00E
:1018C000FFF78CFAA0EB08006428A4D897FAA7F0D9
:1018D000B0FA80F040F02000400902D0306801E00A
:1018E000B7E0706A97FAA7F1B1FA81F101F01F0130
:1018F00004FA01F10842E3D12878DFF890828007EA
:101900004FF000094FF002075AD5706810F00C0F25
:1019100000E07AE14FF0F80B07D07068C0F3810067
:1019200002281BD17068C00318D497FAA7F0B0FA48
:1019300080F040F02000400901D0306800E0706A7B
:1019400097FAA7F1B1FA81F101F01F0104FA01F150
:1019500008422AD0286901287BD126E0286980B373
:1019600094FAA4F0B0FA80F048F82040FFF736FA75
:10197000824605E0FFF732FAA0EB0A00022884D87D
:1019800097FAA7F0B0FA80F040F02000400901D0AB
:10199000306800E0706A97FAA7F1B1FA81F101F0BE
:1019A0001F0104FA01F10842E4D030689BFAABF25F
:1019B0006969B2FA82F220F0F80091400843306081
:1019C00025E0FFE794FAA4F1B1FA81F148F82190FB
:1019D000FFF704FA824605E0FFF700FAA0EB0A00E1
:1019E0000228CCD897FAA7F0B0FA80F040F0200097
:1019F000400901D0306800E0706A97FAA7F1B1FAA7
:101A000081F101F01F0104FA01F10842E4D12878C4
:101A100000076ED5A869B8B394FAA4F0B0FA80F0C4
:101A200008EB8000C0F88044FFF7D8F9824605E053
:101A3000FFF7D4F9A0EB0A000228A0D897FAA7F084
:101A4000B0FA80F040F06000B4EB501F02D1306873
:101A50000CE096E197FAA7F0B0FA80F040F0600051
:101A6000B7EB501F01D1306A00E0706A97FAA7F116
:101A7000B1FA81F101F01F0104FA01F21042D7D04E
:101A80000120FFF7BBF834E0FFE794FAA4F1B1FAC4
:101A900081F108EB8101C1F88094FFF79FF982463C
:101AA00006E000BFFFF79AF9A0EB0A00022898D8D9
:101AB00097FAA7F0B0FA80F040F06000B4EB501F46
:101AC00001D130680BE097FAA7F0B0FA80F040F04F
:101AD0006000B7EB501F01D1306A00E0706A97FADE
:101AE000A7F1B1FA81F101F01F0104FA01F21042ED
:101AF000D8D12878400770D5F06940F08050F06167
:101B0000F069DFF88CB000F080500090DBF8001036
:101B100041F48071CBF80010FFF760F9824605E0D0
:101B2000FFF75CF9A0EB0A0064286ED8DBF8000030
:101B3000C005F5D5306A20F001003062306A20F02F
:101B400004003062FFF74AF9834641F2883A05E023
:101B5000FFF744F9A0EB0B01514556D897FAA7F0CF
:101B6000B0FA80F040F04000B4EB501F01D1306873
:101B700011E097FAA7F0B0FA80F040F04000B7EB20
:101B8000501F07D1306A06E00010024000004242B8
:101B900000700040706A97FAA7F1B1FA81F101F084
:101BA0001F0104FA01F10842D2D1E86801280AD0E5
:101BB00008B1052812D0306A20F001003062306A86
:101BC00020F0040002E0306A40F001003062E86872
:101BD00098B3FFF703F983460CE05AE0306A40F00F
:101BE00004003062EFE700BFFFF7F8F8A0EB0B014D
:101BF00051450AD897FAA7F0B0FA80F040F04000BB
:101C0000B4EB501F02D130680CE09DE097FAA7F0CA
:101C1000B0FA80F040F04000B7EB501F01D1306ABD
:101C200000E0706A97FAA7F1B1FA81F101F01F02A2
:101C300004FA02F10842D7D02BE0FFE7FFF7CEF815
:101C4000834605E0FFF7CAF8A0EB0B0151457BD8AE
:101C500097FAA7F0B0FA80F040F04000B4EB501FC4
:101C600001D130680BE097FAA7F0B0FA80F040F0AD
:101C70004000B7EB501F01D1306A00E0706A97FA5C
:101C8000A7F1B1FA81F101F01F0204FA02F1084252
:101C9000D8D1E86980B37168C1F38101022970D09D
:101CA0004FF080714F000228484609D091FAA1F107
:101CB000B1FA81F148F82100FFF790F8054669E094
:101CC000894691FAA1F1B1FA81F1C24648F82100A2
:101CD000FFF784F8804605E0FFF780F8A0EB0800E6
:101CE000022854D897FAA7F0B0FA80F040F020000C
:101CF000400902D0306801E061E0706A97FAA7F10C
:101D0000B1FA81F101F01F0104FA01F10842E3D1B7
:101D1000286AB0F5803F05D17068A96820F40030CA
:101D200008437060D5E908010843716821F4741113
:101D30000843706099FAA9F0B0FA80F04AF82040A0
:101D4000FFF74CF8054606E021E000BFFFF746F834
:101D5000401B02281BD897FAA7F0B0FA80F040F099
:101D60002000400901D0306800E0706A97FAA7F1BE
:101D7000B1FA81F101F01F0104FA01F10842E5D046
:101D80001DE01EE0FFF72AF8401B022802D90320BD
:101D9000BDE8F88F97FAA7F0B0FA80F040F0200085
:101DA000400901D0306800E0706A97FAA7F1B1FAF3
:101DB00081F101F01F0104FA01F10842E2D1002093
:101DC000E6E70120E4E74FF0E0210428086903D0AA
:101DD00020F004000861704740F00400FAE7704703
:101DE00010B5401EB0F1807F01D3012010BD4FF02F
:101DF000E02460610F21601700F03EFB0020A0612D
:101E000007202061002010BD10B5FFF7E8FF10BDCE
:101E100070B5040004D094F83900002510B106E034
:101E2000012070BD84F83850204600F021F80220CF
:101E300084F839002068C16821F40051C16020464F
:101E400000F0FCFC2068016921F4904101612068E8
:101E5000416921F02A0141612068C16841F40051C3
:101E6000C160E563012084F83900002070BD0000E6
:101E700010B50068114986B088421DD110488169AB
:101E800041F48041816180690E4C00F480400490EF
:101E90004FF40070009002200190032003906946E7
:101EA0002046FEF7B7FE00212015CDE90001029182
:101EB00069462046FEF7AEFE06B010BD0038014070
:101EC00000100240000801402DE9F047044690F858
:101ED000390099460D46012801D0222858D12DB34A
:101EE00022B394F83800012852D0012684F83860D3
:101EF0000027E76394F8390022281AD05FF0120017
:101F000084F83900A284E2844FF48058E08C4B4678
:101F1000401EE084A0684FF0000240454FF0800171
:101F2000204613D100F0FAFC08BB04E00120BDE814
:101F3000F0873220E4E728882168C0F30800486071
:101F4000206908B16D1C08E0AD1C06E000F0E6FC5D
:101F500068B9216815F8010B4860E08C0028D5D1DC
:101F60004B4600224021204600F0D8FC08B1032057
:101F7000DDE794F83900322806D084F8396000BFD4
:101F800084F838700020D2E7222084F83900F7E77F
:101F90000220CCE701684A69D24352050DD44A6950
:101FA00022F480624A6104218163202180F8351087
:101FB000002180F834100120704700207047000095
:101FC00070B5044600680D461646016841F48071FC
:101FD0000160134600224FF00111204600F02AF85C
:101FE00098B92069B0F5804F11D00620216800EA29
:101FF000D51040F0F000086132460D49204600F04F
:102000005EF838B1A06B042810D0032070BD05F035
:10201000FE0000E0E8B22168086105493246891FE8
:10202000204600F04CF80028ECD170BD012070BDB6
:10203000080001002DE9F05F1E4690460C4605465B
:10204000FEF7CCFE81464FF0000A4FF0200BC4F3A0
:102050000747B8F1000F09D024E0701C06D0D6B1B4
:10206000FEF7BCFEA0EB0900B04214D82868012F8F
:1020700006D0806924EA00000004000C1BD0ECE7C5
:102080004069F7E7701C0DD02EB1FEF7A7FEA0EB5C
:102090000900B04206D985F835B085F834A0032090
:1020A000BDE8F09F2868012F07D0806924EA00006E
:1020B0000004000CE6D00020F2E74069F6E72DE9C5
:1020C000F04791460D460446FEF788FE82460027FB
:1020D0004FF02008C5F3074629E020684069C04357
:1020E000400512D42068016841F400710160206845
:1020F000416921F4806141610420A06384F8358046
:1021000084F834700120BDE8F087B9F1FF3F0ED0AC
:10211000B9F1000F05D0FEF761FEA0EB0A014945B9
:1021200005D984F8358084F834700320EBE7206803
:10213000012E06D0806925EA00000004000CE2D0E0
:10214000CBE74069F7E770B50D460446FEF746FE5B
:10215000064619E02046FFF71DFF08B1012070BDBB
:10216000681C11D025B1FEF739FE801BA8420BD99F
:1021700054F8380F40F0200044F804092020607023
:1021800000202070032070BD20684069C043000615
:10219000E0D4002070BD0000FEB55548534900242E
:1021A0000160891501254461C0E902150C2606610C
:1021B0004FF440214460C161FEF7CCF918B14521CC
:1021C0004CA000F0F4FBCDE9004569464848029474
:1021D000FEF796F818B14F2146A000F0E8FB022464
:1021E000CDE9005469464248FEF78AF818B15821F3
:1021F00040A000F0DCFB0094032469463C480194B5
:10220000FEF77EF818B161213AA000F0D0FB0094EF
:102210000424694636480194FEF772F818B16A2121
:1022200034A000F0C4FB00940524694630480194B2
:10223000FEF766F818B173212EA000F0B8FB0094E9
:10224000062469462A480194FEF75AF818B17C2101
:1022500028A000F0ACFB00940724694624480194B0
:10226000FEF74EF818B1852122A000F0A0FB0094E3
:10227000082469461E480194FEF742F818B18E21E1
:102280001CA000F094FB00940924694618480194AE
:10229000FEF736F818B1972116A000F088FB0A2047
:1022A000CDE9004069461248FEF72AF818B1A0218E
:1022B00010A000F07CFB102000900B2001906946DC
:1022C0000B48FEF71DF818B1A9210AA000F06FFB1A
:1022D0001120CDE9000669460548FEF711F80028EF
:1022E00003D0B22103A000F062FBFEBD0024014038
:1022F000A40000202E2E2F5372632F6164632E637F
:1023000000000000094808B5416941F00101416140
:102310004069002200F00100009011460B20FEF7FA
:10232000A5FFBDE808400B20FEF794BF0010024057
:1023300070B5254886B0816941F0100181618169DD
:1023400001F010010491816941F0200181618169EE
:1023500001F020010491816941F0040181618169EA
:1023600001F004010491816941F0080181618069F3
:10237000012200F00800154D540304902146284620
:10238000FEF726FD124E002220213046FEF720FDEA
:10239000009401240194694628460394FEF73AFC10
:1023A000E00200900B480190002002906946304600
:1023B000FEF730FC2020CDE9000469463046039446
:1023C000FEF728FC06B070BD00100240001001406E
:1023D000000C0140000011100E4810B50C490160BE
:1023E0000D49416000214FF480428160C0E9031231
:1023F00041618161C1610162FEF7F6FC002805D0F0
:10240000BDE81040422105A000F0D1BA10BD000087
:102410000054004030000020801A06002E2E2F535A
:1024200072632F6932632E63000000000D4810B5FF
:102430000B4901604FF4E1314160002181600C22C1
:10244000C160C0E904128161C161FFF7E1FC0028AD
:1024500005D0BDE81040422103A000F0A8BA10BD8D
:10246000003801400C0100202E2E2F5372632F756F
:10247000736172742E6300000907090E002806DAE2
:1024800000F00F0000F1E02080F8141D704700F10B
:10249000E02080F8001470477047000070B5802875
:1024A00013D2402911D20B4B012401F007051E79EC
:1024B000AC40094BC90800EBC1100EB132B101E0CC
:1024C000012A03D0195CA143195470BD195C214342
:1024D000FAE70000200000204C01002028B1FF2274
:1024E0004FF480610248FDF71DBE0022F8E70000AE
:1024F0004C010020014A10805180704720000020CC
:1025000010B500F0E7FC44F6206301227821514821
:10251000FEF7DAFC08B1002010BD40F6C210401EE4
:10252000FDD1AE220021782000F0DAFC202200212B
:10253000782000F0D5FC10220021782000F0D0FC9B
:10254000B0220021782000F0CBFCC82200217820A6
:1025500000F0C6FC00221146782000F0C1FC1022D9
:102560000021782000F0BCFC40220021782000F0FF
:10257000B7FC81220021782000F0B2FCFF2200216C
:10258000782000F0ADFCA1220021782000F0A8FC0A
:10259000A6220021782000F0A3FCA82200217820A8
:1025A00000F09EFC3F220021782000F099FCA4223C
:1025B0000021782000F094FCD3220021782000F044
:1025C0008FFC00221146782000F08AFCD5220021E1
:1025D000782000F085FCF0220021782000F080FCBB
:1025E000D9220021782000F07BFC222200217820D3
:1025F00000F076FCDA220021782000F071FC122233
:102600000021782000F06CFCDB220021782000F013
:1026100067FC20220021782000F062FC8D2200213E
:10262000782000F05DFC14220021782000F058FC96
:10263000AF220021782000F053FC0020FFF74EFF6E
:1026400000F070F8044800210180418001214171AF
:10265000084610BD30000020200000202DE9F04782
:10266000814625480D46924601882A7811448029E2
:1026700005D28046408869780844402802D300206B
:10268000BDE8F08700262AE0A9F1200101FB0060E7
:102690006A68002432F810701DE000BF07FA04F0E9
:1026A000000409D5B8F80210B8F8000031442044FD
:1026B00089B280B252460BE0BAF1000F1AD0002264
:1026C000B8F80210B8F800003144204489B280B252
:1026D000FFF7E4FE641C2878A042DFD8761C6878F7
:1026E000B042D1D8B8F800102A7848461144A8F86A
:1026F0000010C5E70122E3E72000002070B5154671
:102700000E46044609E02A463146FFF7A7FF217826
:10271000884201D0C8B270BD641C20780028F2D174
:10272000C0B270BD70B5104D002400BF04F1B00000
:10273000C2B20021782000F0D3FB0022114678209D
:1027400000F0CEFB10220021782000F0C9FB05EB41
:10275000C41280234021782000F0D2FB641CE4B234
:10276000082CE3D370BD00004C010020704710B569
:10277000FEF704FDBDE81040FFF746BB30B593B04F
:1027800001210804CDE900100025029502240491DE
:10279000CDE90740000109906846FEF7FBFF00B154
:1027A000FEE70AA90F2081E831004FF48060CDE9EF
:1027B0000D0501210AA8FEF71FFE00B1FEE74FF448
:1027C000004011900F940FA8FEF782FD00B1FEE7C4
:1027D000FEF756FF4FF47A71B0FBF1F0FFF700FB04
:1027E0000420FFF7F0FA00221146501EFEF73EFDCE
:1027F00013B030BD0D48016841F00101016041682E
:102800000B4A1140416001680A4A114001600168A9
:1028100021F480210160416821F4FE0141604FF400
:102820001F0181600449C003086070470010024026
:102830000000FFF8FFFFF6FE08ED00E02DE9F04193
:10284000044600680169E26821F4405111430161C6
:102850002169A0680843616908432168CA6841F298
:102860000C639A430243CA6020684169A26921F45B
:102870004071114341612849206864254FF03208B6
:10288000884218D1FEF72CFF00EBC00101EB0010CD
:1028900061688900B0FBF1F0B0FBF5F6FEF720FFB0
:1028A00000EBC00101EB001061688900B0FBF1F79B
:1028B000FEF716FF17E0FEF7FDFE00EBC00101EB8F
:1028C000001061688900B0FBF1F0B0FBF5F6FEF78F
:1028D000F1FE00EBC00101EB001061688900B0FB64
:1028E000F1F7FEF7E7FE00EBC00101EB00106168B5
:1028F0008900B0FBF1F0B0FBF5F06FF01801484330
:1029000007EB800108EB0110B0FBF5F0216866F3DE
:102910001F108860BDE8F081003801402DE9F047C4
:102920001D4690460E460446FEF758FA07465FEAF3
:1029300008004FF000094FF0010808D030E0681C93
:1029400005D095B1FEF74AFAC01BA8420DD8206801
:10295000006836EA0000F2D127E0681C20D025B1DB
:10296000FEF73CFAC01BA8421AD92068C16821F0C2
:102970008001C1602068C16821F02001C160206829
:10298000C16821F48071C1602068416921F00101B2
:10299000416184F8398084F838900320BDE8F087DD
:1029A0002068006836EA0000D7D00020F6E7FEE78E
:1029B0000FB4054B10B503A9044A029800F02CF897
:1029C00010BC5DF814FB0000112D00080000002071
:1029D0000FB4084B10B504A902AA039800F01CF824
:1029E000044602A9002000F0C1F8204610BC5DF8A2
:1029F00014FB00006D2B000802E008C8121F08C17C
:102A0000002AFAD170477047002001E001C1121F6F
:102A1000002AFBD1704700002DE9FF4F89B09B468B
:102A20000446002506E025280BD05A460B9990470E
:102A3000641C6D1C20780028F5D10DB02846BDE837
:102A4000F08F0027B8460122474900E0074314F8F9
:102A5000013F203B02FA03F00842F7D120782E28EC
:102A600019D114F8010F47F004072A280ED06FF08F
:102A70002F022078A0F1300109290CD808EB880139
:102A800002EB410100EB0108641CF2E70A98641CA8
:102A900050F8048B0A9020780028CED0642808D003
:102AA000692806D075281ED05A460B9990476D1C90
:102AB00058E00A994FF00A0901C90A91002802DA80
:102AC00040422D2102E0390504D52B218DF820103C
:102AD000012103E0F90704D02021F7E78A4608AE78
:102AE0000DE00021FAE70A994FF00A0901C90A919D
:102AF000F7E74946FDF728FB303106F8011D0028AD
:102B0000F7D1ADEB060000F12009780701D44FF0B2
:102B10000108C84502DDA8EB090000E0002080465E
:102B2000002706E008A85A46C05D0B9990476D1C27
:102B30007F1C5745F6DB04E030205A460B9990473E
:102B40006D1CB8F10001A8F10108F5DC05E016F8EC
:102B5000010B5A460B9990476D1CB9F10001A9F180
:102B60000109F4DC641C65E7092801000A68531CAC
:102B70000B6010707047000010B50C220649074822
:102B8000FDF7DAFD4FF47A70FEF738F8BDE8104033
:102B90000248FDF757BE000086000020A400002078
:102BA00070B501214620FFF7A5FC0122514952A032
:102BB000FFF7A4FD1E214620FFF79CFC01224D4992
:102BC0004EA0FFF79BFD4E4D00204E4C687019E063
:102BD000C0B101281ED0022824D003282BD00428FD
:102BE00031D0052837D006283DD0072843D0082803
:102BF00058D009285ED00A2864D00B286AD00C2847
:102C000049D16FE022883F483FA11038FFF7E0FE2E
:102C100000210EE062883B483BA11038FFF7D8FE48
:102C20000A2106E0A288374837A11038FFF7D0FE06
:102C30001421002027E0E288324833A11038FFF742
:102C4000C7FE1E21F5E722892E482FA11038FFF775
:102C5000BFFE2821EDE762892A482BA11038FFF733
:102C6000B7FE3221E5E7A289264827A11038FFF7F1
:102C7000AFFE002106E0E289224823A11038FFF7C9
:102C8000A7FE0A212320FFF735FC1E4801221F4919
:102C90001038FFF733FD6878401CC0B268700C280C
:102CA00096D370BD228A174817A11038FFF790FEFF
:102CB0001421E7E7628A134813A11038FFF788FE52
:102CC0001E21DFE7A28A0F480FA11038FFF780FE10
:102CD0002821D7E7E28A0B480BA11038FFF778FECE
:102CE0003221CFE7228B074807A11038FFF770FE8B
:102CF0003C21C7E718000020414C4C0041444300F0
:102D00000400002086000020256400001000002040
:102D100038B504468DF800000A23012269460248AE
:102D2000FFF7D2F8204638BD0C01002010B500286E
:102D300021D0114B0022001F196803E0814203D803
:102D40000A4649680029F9D152B11368841A9C4295
:102D500004D1006818441060104602E0506000E0A2
:102D6000186039B102680B1A934203D10B681A44F8
:102D700002604968416010BD28000020FEF706FA95
:102D8000FFF7FCFCFFF7D4FAFFF7BCFAFFF724FBD0
:102D9000FFF702FAFFF74AFB274C4FF47A7536E04B
:102DA000FFF7AEFB014625A0FFF702FE01210A2036
:102DB000FFF7A0FB0122254925A0FFF79FFC192161
:102DC0002820FFF797FB0122204923A0FFF796FC5C
:102DD000227822A12248FFF7FBFD20784FF0320134
:102DE0000A2801D2372000E03220FFF783FB0122BE
:102DF0001C491B48FFF782FCFFF794FC0020FFF7FB
:102E00006DFB2078401E20702846FDF7F7FE2078E5
:102E10000028C5D1FFF762FBFFF784FCFFF7ACFE8B
:102E2000FFF7BEFEFFF77EFC2846FDF7E7FE002019
:102E3000FFF754FBF2E70000040000204F4C45442C
:102E400020696E69743A2025640A00001800002089
:102E5000736C61766B6100003431340025640000CE
:102E60006C00002010000020F0B50B30154D20F054
:102E700007010024144A0FE003688B420BD38B42F6
:102E800005D95E1A43184768C3E9006700E0436844
:102E9000136002C004E0021D10680028ECD1204637
:102EA000002802D1286808B10020F0BD064A074872
:102EB0001060074A121A22F00702C0E9002401201C
:102EC0002860D7E72C0000202800002054050020AF
:102ED000500900200148401EFDD1704790D00300EA
:102EE0001CB502238DF804100A2100918DF80520ED
:102EF000014601AA0148FEF789F81CBD30000020F8
:102F00002DE9F84380461C4616460F46581CFFF72D
:102F1000ABFF05460770012005E0311811F8011CD0
:102F20002954401CC0B2A042F7D90A200090234681
:102F30002A4641460348FEF769F82846BDE8F843AB
:102F4000FFF7F4BE3000002000000000010203047F
:102F50000102030406070809000000000000000049
:102F60000000000000000000000000000010001041
:102F70000010001000100010000000100000000001
:102F800000280028002800000000000000000000C9
:102F90000000000000240024007C00240048007C85
:102FA000004800480000000000380054005000387D
:102FB0000014005400540038001000000020005499
:102FC00000580030002800540014000800000000E1
:102FD0000010002800280010003400480048003489
:102FE00000000000001000100010000000000000B1
:102FF0000000000000000000000800100020002079
:1030000000200020002000200010000800200010F8
:103010000008000800080008000800080010002050
:103020000010003800100028000000000000000020
:10303000000000000000000000100010007C0010E4
:103040000010000000000000000000000000000070
:103050000000000000000010001000100000000040
:103060000000000000000038000000000000000028
:103070000000000000000000000000000000001040
:1030800000000000000800080010001000100010F0
:1030900000200020000000000038004400440054DC
:1030A00000440044004400380000000000100030DC
:1030B0000050001000100010001000100000000070
:1030C0000038004400440004000800100020007C88
:1030D0000000000000380044000400180004000450
:1030E00000440038000000000008001800280028F4
:1030F0000048007C0008000800000000007C004040
:103100000040007800040004004400380000000083
:103110000038004400400078004400440044003877
:1031200000000000007C00040008001000100020D7
:103130000020002000000000003800440044003857
:1031400000440044004400380000000000380044FF
:1031500000440044003C000400440038000000002B
:10316000000000000010000000000000000000103F
:10317000000000000000000000000010000000003F
:10318000000000100010001000000000000C0030D3
:1031900000400030000C00000000000000000000B3
:1031A0000000007C0000007C000000000000000027
:1031B000000000000060001800040018006000001B
:1031C0000000000000380044000400080010001057
:1031D000000000100000000000380044004C0054C3
:1031E000005C004000400038000000000010002893
:1031F000002800280028007C004400440000000053
:103200000078004400440078004400440044007802
:103210000000000000380044004000400040004032
:1032200000440038000000000070004800440044E2
:10323000004400440048007000000000007C004092
:103240000040007C004000400040007C0000000086
:10325000007C0040004000780040004000400040FA
:10326000000000000038004400400040005C0044C2
:103270000044003800000000004400440044007C8A
:1032800000440044004400440000000000380010E6
:1032900000100010001000100010003800000000A6
:1032A000000400040004000400040004004400388A
:1032B000000000000044004800500060005000483A
:1032C0000048004400000000004000400040004072
:1032D000004000400040007C000000000044006C02
:1032E000006C00540044004400440044000000000E
:1032F00000440064006400540054004C004C00443E
:103300000000000000380044004400440044004431
:1033100000440038000000000078004400440044ED
:1033200000780040004000400000000000380044E9
:1033300000440044004400440054003800040000ED
:1033400000780044004400440078004800480044ED
:103350000000000000380044004000300008000475
:103360000044003800000000007C00100010001035
:103370000010001000100010000000000044004485
:1033800000440044004400440044003800000000B1
:1033900000440044004400280028002800100010C9
:1033A0000000000000440044005400540054006C2D
:1033B0000028002800000000004400280028001019
:1033C00000100028002800440000000000440044D1
:1033D000002800280010001000100010000000005D
:1033E000007C000400080010001000200040007C59
:1033F0000000000000180010001000100010001065
:103400000010001000100018002000200010001014
:10341000001000100008000800000000003000103C
:1034200000100010001000100010001000100030FC
:1034300000100028002800440000000000000000E8
:10344000000000000000000000000000000000007C
:1034500000000000000000FE00200010000000003E
:10346000000000000000000000000000000000005C
:1034700000380044003C0044004C003400000000D0
:1034800000400040005800640044004400640058BC
:103490000000000000000000003800440040004030
:1034A0000044003800000000000400040034004C18
:1034B00000440044004C0034000000000000000004
:1034C00000380044007C0040004400380000000048
:1034D000000C0010007C0010001000100010001004
:1034E00000000000000000000034004C00440044D4
:1034F000004C003400040078004000400058006494
:10350000004400440044004400000000001000009B
:1035100000700010001000100010001000000000EB
:1035200000100000007000100010001000100010CB
:10353000001000E0004000400048005000600050D3
:10354000004800440000000000700010001000104F
:10355000001000100010001000000000000000002B
:10356000007800540054005400540054000000003F
:10357000000000000058006400440044004400447F
:103580000000000000000000003800440044004437
:1035900000440038000000000000000000580064F3
:1035A0000044004400640058004000400000000057
:1035B0000034004C00440044004C0034000400047B
:1035C000000000000058006400400040004000403F
:1035D0000000000000000000003800440030000837
:1035E0000044003800000000002000200078002087
:1035F0000020002000200018000000000000000053
:103600000044004400440044004C0034000000002A
:10361000000000000044004400280028002800109A
:103620000000000000000000005400540054006C32
:1036300000280028000000000000000000440028CE
:1036400000100010002800440000000000000000EE
:103650000044004400280028001000100010006002
:1036600000000000007C0008001000200040007CEA
:1036700000000000001800100010001000200020C2
:1036800000100010001000180010001000100010B2
:10369000001000100010001000100010003000108A
:1036A000001000100008000800100010001000308A
:1036B0000000000000000074004C0000000000004A
:1036C00000000000000000000000000000000000FA
:1036D00000000000000000000000000000000000EA
:1036E00000000000000000000000000000000000DA
:1036F0000000000000000000E003E003E003E0033E
:10370000E003E003E003E003C003C003C001C00125
:10371000C001C001C001000000000000E003E003A0
:10372000E003000000000000000000003C1E3C1E02
:103730003C1E3C1E3C1E3C1E3C1E000000000000C7
:103740000000000000000000000000000000000079
:103750000000000000000000000000000000000069
:10376000CE01CE03DE039E039C039C07FF3FFF7F39
:103770003807380F780F780F780EFFFFFFFFF01E25
:10378000F01CE01CE03CE03DE039000000000000DF
:1037900000000000FC03FE0FEE1FE01EE01EE01E16
:1037A000E01EE01FE00FE007F003FC01FE01FE0158
:1037B000FE01FE01FE01FE01FE3DFC3FF00FE001B7
:1037C000E001000000000000033E07F78FE78EE7EE
:1037D0009EE3BCE3B8E7F8E7F0F7E03FC001FF0382
:1037E000FF07F307F30FF31EF33CF338F3787FF092
:1037F0003FE000000000000000000000E007F80FBC
:10380000780F781F781F781F780FF00FE00F801F58
:10381000C37FC3FBE7F3F7F1F7F0FFF07FF03EF86B
:103820007F7CFF3FEF1F0000000000000000000051
:10383000E003E003E003E003E003C003C001000095
:103840000000000000000000000000000000000078
:103850000000000000000000000000000000000068
:10386000000000003F007C00F001E001C003C00741
:1038700080078007800F000F000F000F000F000F60
:10388000000F800F80078007C007C003E001F00130
:103890007C003F000F000000007E001FC007C00337
:1038A000E001F001F000F000F80078007800780006
:1038B000780078007800F800F000F000F001E001F6
:1038C000C003C007001F007E00780000E003C003B3
:1038D000C001CE39FF3F7F3F20037003F807780F08
:1038E0003C1F38060000000000000000000000003F
:1038F00000000000000000000000000000000000C8
:10390000000000000000000000000000C001C00135
:10391000C001C001C001C001C001FFFFFFFFC00125
:10392000C001C001C001C001C001000000000000D2
:103930000000000000000000000000000000000087
:103940000000000000000000000000000000000077
:10395000000000000000E003E003E003E003E001FA
:10396000E001E001C0018003000000000000000051
:103970000000000000000000000000000000FE3F0A
:10398000FE3F0000000000000000000000000000FA
:103990000000000000000000000000000000000027
:1039A0000000000000000000000000000000000017
:1039B0000000000000000000000000000000E00324
:1039C000E003E003E003000000000000000000004E
:1039D0000F000F001E001E003C003C007800780025
:1039E000F000F000E001E001C003C00380078007A1
:1039F000000F000F001E001E003C003C0078007805
:103A000000F00000F007F80F7C1F3E3E1E3C1F7CBC
:103A10001F7C0F780F780F780F780F780F780F785A
:103A20001F7C1F7C1E3C3E3E7C1FF80FF0070000F1
:103A30000000000000000000F000F007F03FF03F41
:103A4000F001F001F001F001F001F001F001F001EE
:103A5000F001F001F001F001F001F001F001FF3F91
:103A6000FF3F00000000000000000000E00FF83FF2
:103A70007C3C3C003E003E003E003C003C007C00A4
:103A8000F800F001E003C0078007000F001E003EB1
:103A9000003CFE3FFE3F0000000000000000000070
:103AA000F00FF81F7C1C3E003E003E003C003C0036
:103AB000F800F00FF80F7C003E001E001E001E00F4
:103AC0001E003E007C1CF81FE01F000000000000EC
:103AD000000000007800F800F800F801F803F8078B
:103AE000F807780F781E781E783C78787878FFFF92
:103AF000FFFF7800780078007800780078000000F8
:103B00000000000000000000FC1FFC1FFC1F001E46
:103B1000001E001E001E001EE01FF81FFC007C009F
:103B20003E003E001E003E003E003C007C1CF81F94
:103B3000E01F00000000000000000000FC01FE0784
:103B40008E0F001F001E003E003C003CF83DFC3F75
:103B50003E7F1F7E0F3C0F3C0F3C0F3C0F3E1F1E55
:103B60003E1FFC0FF00300000000000000000000FA
:103B7000FF3FFF3FFF3F0F001E001E003C003800CC
:103B80007800F000F000E001E001C003C00380070E
:103B9000800F800F000F001F001F000000000000BA
:103BA00000000000F807FC0F3E1F1E1E1E3E1E3EBA
:103BB0001E1E3C1FF80FF007F80FFC1E3E3E1F3C78
:103BC0001F7C0F7C0F7C1F3C3E3FFC1FF00700005A
:103BD0000000000000000000F007F80F7C1E3E3CD3
:103BE0001E3C1F7C1F7C1F7C1F7C1F3C3F3EFF1F19
:103BF000EF071F001E001E003E003C00F838F03F9B
:103C0000E01F0000000000000000000000000000B5
:103C10000000000000000000E003E003E003E00318
:103C20000000000000000000000000000000E003B1
:103C3000E003E003E00300000000000000000000DB
:103C4000000000000000000000000000E003E003AE
:103C5000E003E0030000000000000000000000009E
:103C60000000E003E003E003E003E001E001E00125
:103C7000C0038003000000000000000000000000FE
:103C800003000F003F00FC00F003C00F003F00FEE8
:103C9000003FC00FF003FC003F000F0003000000D6
:103CA0000000000000000000000000000000000014
:103CB000000000000000000000000000FFFFFFFF08
:103CC000000000000000FFFFFFFF000000000000F8
:103CD00000000000000000000000000000000000E4
:103CE000000000000000000000E000F8007E801FDF
:103CF000E007F8017E001F007E00F801E007801F4A
:103D0000007E00F800E0000000000000000000005D
:103D1000F01FFC3F3E381F381F381E001E003C00BD
:103D20007800F000E001C003C003C007C007000036
:103D300000000000C007C007C0070000000000002E
:103D400000000000F803FE0F1E1F0F3E7F3CFF78AF
:103D5000EF79C773C7F38FF38FF38FF39FF39FF35D
:103D6000FF73FF7BF779003C1C1FFC0FF80300007A
:103D70000000000000000000000000000000E00360
:103D8000E003F007F007F007780F780F7C0E3C1E79
:103D90003C1E3E3CFE3FFF3F1F780F780FF007F0C0
:103DA00007F000000000000000000000000000001C
:103DB0000000F83FFC3F3E3C1E3C1E3C1E3C3E3C8F
:103DC0007C3CF03FF83F7E3C1F3C1F3C0F3C0F3CCF
:103DD0001F3CFE3FF83F0000000000000000000014
:103DE000000000000000FF01FF07871F003E003CAD
:103DF000007C00780078007800780078007C007CF7
:103E0000003E003F831FFF07FF010000000000008D
:103E100000000000000000000000F07FFC7F7E78C2
:103E20001F781F780F780F780F780F780F780F783A
:103E30000F780F781F781E787E78F87FE07F00007B
:103E40000000000000000000000000000000FF3F34
:103E5000FF3F003E003E003E003E003E003EFE3F73
:103E6000FE3F003E003E003E003E003E003EFF3F63
:103E7000FF3F000000000000000000000000000004
:103E80000000FF1FFF1F001E001E001E001E001E60
:103E9000001EFF1FFF1F001E001E001E001E001E32
:103EA000001E001E001E00000000000000000000B8
:103EB000000000000000FE03FF0F871F003E007C93
:103EC000007C007800F800F87FF87FF80F780F7C0E
:103ED0000F7C0F3E8F1FFF0FFE030000000000004D
:103EE000000000000000000000001F7C1F7C1F7C01
:103EF0001F7C1F7C1F7C1F7C1F7CFF7FFF7F1F7C24
:103F00001F7C1F7C1F7C1F7C1F7C1F7C1F7C000074
:103F10000000000000000000000000000000FF3F63
:103F2000FF3FE003E003E003E003E003E003E0031E
:103F3000E003E003E003E003E003E003E003FF3F0E
:103F4000FF3F000000000000000000000000000033
:103F50000000FC1FFC1F7C007C007C007C007C00BF
:103F60007C007C007C007C007C007C007800780079
:103F7000F838F03FC03F00000000000000000000E3
:103F80000000000000001F3C1E3C3C3C783CF03C24
:103F9000E03DE03FC03F803FC03FE03FF03DF03CB0
:103FA000783C7C3C3E3C1F3C0F3C00000000000085
:103FB00000000000000000000000003E003E003E47
:103FC000003E003E003E003E003E003E003E003E01
:103FD000003E003E003E003E003EFF3FFF3F00002F
:103FE00000000000000000000000000000001FF8BA
:103FF0001FFC1FFC3FFE3FFE3FFE7FFF77FF77FF6A
:10400000F7F7E7F7E7F3E7F3C7F307F007F007F091
:1040100007F00000000000000000000000000000A9
:1040200000000F7C0F7C0F7E0F7F0F7F8F7F8F7FB5
:10403000CF7FEF7BEF79FF79FF78FF787F783F784C
:104040003F781F781F78000000000000000000008B
:10405000000000000000F007FC1F3E3E1F7C0F78B0
:104060000F780FF80FF80FF80FF80FF80FF80F7818
:104070000F781F7C3E3EFC1FF00700000000000090
:1040800000000000000000000000FC3FFF3F1F3E5A
:104090000F3E0F3E0F3E0F3E1F3E3F3EFC3FF03FA8
:1040A000003E003E003E003E003E003E003E00005E
:1040B0000000000000000000000000000000F00709
:1040C000FC1F3E3E1F7C0F780F780FF80FF80FF89B
:1040D0000FF80FF80FF80F780F781F7C3E3EFC1F8B
:1040E000F8077C003F000F00030000000000000004
:1040F0000000F03FFC3F7E3C3E3C1E3C1E3C3E3CF4
:104100003C3CFC3CF03FE03FF03DF83C7C3C3E3C1E
:104110001E3C1F3C0F3C000000000000000000009F
:10412000000000000000FC07FE1F0E3E003C003CAB
:10413000003C003EC01FF80FFE037F001F000F0071
:104140000F001F203E3CFC3FF01F0000000000005D
:1041500000000000000000000000FFFFFFFFE00380
:10416000E003E003E003E003E003E003E003E00337
:10417000E003E003E003E003E003E003E00300000A
:1041800000000000000000000000000000000F7CA4
:104190000F7C0F7C0F7C0F7C0F7C0F7C0F7C0F7CC7
:1041A0000F7C0F7C0F7C0F7C1E3C1E3C3E3EFC1F98
:1041B000F007000000000000000000000000000008
:1041C000000007F007F007F80F780F7C1E3C1E3C3C
:1041D0001E3E3C1E3C1F781F780FF80FF007F007BB
:1041E000F007E003E0030000000000000000000012
:1041F00000000000000003E003F003F007F0E7F325
:10420000E7F3E7F3E773F77BF77FFF7F7F7F7F7F3E
:104210007E7F7E3F3E3E3E3E3E3E00000000000070
:104220000000000000000000000007F80F7C1E3EA8
:104230003E3E3C1FF80FF007E007E003E003F00705
:10424000F80F7C0F7C1E3E3C1F780F780FF00000AB
:10425000000000000000000000000000000007F85F
:1042600007780F7C1E3C1E3E3C1F780FF80FF007AE
:10427000E003E003E003E003E003E003E003E00326
:10428000E00300000000000000000000000000004B
:104290000000FF7FFF7F0F001F003E007C00F80042
:1042A000F000E001E003C007800F000F001E003E99
:1042B000007CFF7FFF7F0000000000000000000086
:1042C000FF07800780078007800780078007800737
:1042D00080078007800780078007800780078007A6
:1042E0008007800780078007800780078007FF0717
:1042F000FF07000000780078003C003C001E001E14
:10430000000F000F80078007C003C003E001E00139
:10431000F000F000780078003C003C001E001E0019
:104320000F000F0007000000F07FF000F000F00029
:10433000F000F000F000F000F000F000F000F000FD
:10434000F000F000F000F000F000F000F000F000ED
:10435000F000F000F000F07FF07F0000C000C0012E
:10436000C001E003E003F007F0077807780F380F8B
:104370003C1E3C1E1E3C1E3C0F380F780778000088
:10438000000000000000000000000000000000002D
:10439000000000000000000000000000000000001D
:1043A000000000000000000000000000000000000D
:1043B00000000000000000000000FFFFFFFF000001
:1043C00000000000F00000000000000000000000FD
:1043D00000000000000000000000000000000000DD
:1043E00000000000000000000000000000000000CD
:1043F00000000000000000000000000000000000BD
:1044000000000000F80FFC3F7C3C3E003E003E00F8
:10441000FE07FE1F3E3E3E7C3E783E7C7E7CFF3F9C
:10442000CF1F00000000000000000000003C003C26
:10443000003C003C003C003CF83DFE3F3E3F1F3E40
:104440000F3C0F3C0F3C0F3C0F3C0F3C1F3C1E3CF5
:104450003E3FFC3FF03B0000000000000000000079
:10446000000000000000000000000000FE03FF0F3D
:10447000871F003E003E003C007C007C007C003C2E
:10448000003E003E871FFF0FFE03000000000000FB
:10449000000000001F001F001F001F001F001F0062
:1044A000FF07FF1F3F3E1F3C1F7C1F7C1F7C1F78A8
:1044B0001F781F7C1F7C3F3C7F3EFF1FDF0F0000EB
:1044C00000000000000000000000000000000000EC
:1044D00000000000F803FC0F3E1F1E3E1F3C1F7C27
:1044E000FF7FFF7F007C007C003C003E071FFF0F2A
:1044F000FE0300000000000000000000FF01E103D7
:10450000C003C007C007C007FF7FFF7FC007C00709
:10451000C007C007C007C007C007C007C007C00763
:10452000C007C007C0070000000000000000000036
:10453000000000000000000000000000EF07FF1F67
:104540007F3E1F3C1F7C1F7C1F781F781F781F7CBD
:104550001F7C3F3C7F3EFF1FDF0F1E001E001E0022
:104560007C38F83F003C003C003C003C003C003CF8
:10457000FC3DFE3F9E3F1F3F1F3E1F3C1F3C1F3C1C
:104580001F3C1F3C1F3C1F3C1F3C1F3C1F3C0000AE
:104590000000000000000000F001F0010000000039
:1045A00000000000E07FE07FE001E001E001E001C9
:1045B000E001E001E001E001E001E001E001E001F3
:1045C000E00100000000000000000000F800F8001A
:1045D0000000000000000000F83FF83FF800F8007D
:1045E000F800F800F800F800F800F800F800F8000B
:1045F000F800F800F800F800F800F000F071E07F33
:10460000003C003C003C003C003C003C1F3C3E3C6D
:104610007C3CF83CF03DE03DC03FC03FE03FF03D1A
:10462000F83C7C3C3E3C1F3C1F3C0000000000006E
:1046300000000000F07FF001F001F001F001F00156
:10464000F001F001F001F001F001F001F001F001E2
:10465000F001F001F001F001F001F001F0010000C3
:10466000000000000000000000000000000000004A
:10467000000000009EF7FFFFFFFFFFFFE7FBE7F9E9
:10468000C7F1C7F1C7F1C7F1C7F1C7F1C7F1C7F16A
:10469000C7F1000000000000000000000000000062
:1046A0000000000000000000FC3DFE3F9E3F1F3F59
:1046B0001F3E1F3C1F3C1F3C1F3C1F3C1F3C1F3C20
:1046C0001F3C1F3C1F3C00000000000000000000D9
:1046D000000000000000000000000000F007FC1FC8
:1046E0003E3E1F3C1F7C0F780F780F780F780F78B5
:1046F0001F7C1F3C3E3EFC1FF00700000000000036
:1047000000000000000000000000000000000000A9
:10471000F83DFE3F3E3F1F3E0F3C0F3C0F3C0F3C21
:104720000F3C0F3C1F3C1E3E3E3FFC3FF83F003C11
:10473000003C003C003C003C000000000000000089
:1047400000000000EE07FE1F7E3E1E3C1E7C1E7811
:104750001E781E781E781E781E7C3E7C7E3EFE1FD4
:10476000DE0F1E001E001E001E001E0000000000C6
:1047700000000000000000007F1FFF1FE71FC71F91
:10478000871F001F001F001F001F001F001F001FAA
:10479000001F001F001F00000000000000000000BC
:1047A000000000000000000000000000FC07FE1FE9
:1047B0000E1E003E003E003FE01FFC07FE003E00D4
:1047C0001E001E003E3CFC3FF01F000000000000E9
:1047D0000000000000000000000080078007800744
:1047E000FF7FFF7F800780078007800780078007A3
:1047F0008007800780078007C007FF03FF010000D4
:1048000000000000000000000000000000000000A8
:10481000000000001E3C1E3C1E3C1E3C1E3C1E3C7C
:104820001E3C1E3C1E3C1E3C3E3C7E3CFE3EFE1F93
:10483000DE0F00000000000000000000000000008B
:10484000000000000000000007F00F780F781E3C09
:104850001E3C1E3E3C1E3C1E780F780FF00FF007EA
:10486000F007E003E003000000000000000000008B
:1048700000000000000000000000000003F0E3F171
:10488000E3F3E7F3F7F3F7F3F77F777F7F7F7F7F3C
:104890007F7F3E3E3E3E3E3E3E3E0000000000002A
:1048A0000000000000000000000000000000000008
:1048B0000F7C1E3E3C3E3C1FF80FF007F007E00364
:1048C000F007F807F80F7C1E3E3E1F3C1F780000E3
:1048D00000000000000000000000000000000000D8
:1048E0000000000007F80F780F7C1E3C1E3C3C1EA9
:1048F0003C1E3C1F780FF80FF007F007E003E003C1
:10490000C003C003C0038007800F007F00000000C9
:104910000000000000000000FF3FFF3F1F003E00BE
:104920007C00F800F001E003C007800F001F001EAC
:10493000003CFF7FFF7F000000000000000000003F
:10494000FE01E003C003C003C003C003E001E001B7
:10495000E001C001C003803F803FC003C001E0010F
:10496000E001E001C003C003C003C003E003FE0197
:104970007E000000C001C001C001C001C001C00133
:10498000C001C001C001C001C001C001C001C0011F
:10499000C001C001C001C001C001C001C001C0010F
:1049A000C001C001C0010000C03FE003E001E00120
:1049B000E001E001C001C003C003C001E001FE004E
:1049C000FE00E001C001C003C003C001E001E0013E
:1049D000E001E001E003C03F003F000000000000F4
:1049E00000000000000000000000000000000000C7
:1049F0000000073FC77FE773FFF17EF00000000073
:104A000000000000000000000000000000000000A6
:104A1000304A00080000002030000000F82900089B
:104A2000604A000830000020200B0000082A00081F
:104A3000000000000A0000000000000000A24A047C
:104A4000070A0000582F0008101A0000C43600089A
:104A50000000000000000000000000000000000056
:04000005080000ED02
:00000001FF
